:020000003F2897
:100008007E1480314E010F1C0A280B282E28FE3042
:10001800F00070088F054301111B132814281A28B3
:1000280003307B06031D19281A281D281115FB010A
:100038002E280F1A202821282C287B08783E860095
:10004800870101088C000130F0007008FB072E289A
:100058000130FC007E013F1D322833283D28FB304B
:10006800F0007008BF05FE30F000700840019A05E6
:100078009A147E10090040288031E1208031FC006C
:10008800F801F901FA01FB017E1040014B28FB3011
:10009800F400740840019405FB30F40074089A05D4
:1000A800DF30F40074089205DF30F4007408980516
:1000B800FE30F400740894051A14FD30F400740836
:1000C80094059A140230F5004530F400AA30890BE3
:1000D8006B28F40B6B28F50B6B2880319920803145
:1000E8008031D3208031F601F70177080F39F1000C
:1000F8007608F200C0308031C32080310130F60725
:100108000030F73D40011A14FD30F40074089A05D8
:100118000230F5004530F400AA30890B9128F40B21
:100128009128F50B912879283F2843018F019101E7
:10013800703092003F308D00400194151416F7304E
:10014800F10071087E01CE05EF30F1007108CE058F
:100158001630A30013307D01C60015307E01A400BF
:1001680014307D01C500FE30F10071084E018F0585
:1001780019140B178B172830430190000800F3005F
:100188007C080319C828C928C4287308F80071080E
:10019800F9007208FA00FC0143011114080040013B
:1001A8001215FB30F10071087E01B80539153E15AE
:0C01B8004E0116160B178B1708000134BF
:020000040001F9
:0A000E00EC173F378038FF3FFF3F3B
:00000001FF
